{
    "contractName": "sum",
    "abi": [
        {
            "constant": true,
            "inputs": [],
            "name": "sumation",
            "outputs": [
                {
                    "internalType": "int256",
                    "name": "",
                    "type": "int256"
                }
            ],
            "payable": false,
            "stateMutability": "view",
            "type": "function"
        },
        {
            "inputs": [],
            "payable": false,
            "stateMutability": "nonpayable",
            "type": "constructor"
        },
        {
            "constant": false,
            "inputs": [
                {
                    "internalType": "int256",
                    "name": "number1",
                    "type": "int256"
                },
                {
                    "internalType": "int256",
                    "name": "number2",
                    "type": "int256"
                }
            ],
            "name": "addTwoNumbers",
            "outputs": [],
            "payable": false,
            "stateMutability": "nonpayable",
            "type": "function"
        },
        {
            "constant": true,
            "inputs": [],
            "name": "displaySum",
            "outputs": [
                {
                    "internalType": "int256",
                    "name": "",
                    "type": "int256"
                }
            ],
            "payable": false,
            "stateMutability": "view",
            "type": "function"
        }
    ],
    "bytecode": "0x608060405234801561001057600080fd5b506000808190555060ff806100266000396000f3fe6080604052348015600f57600080fd5b5060043610603c5760003560e01c80636321e71a146041578063801b0eef146076578063d9f2ca41146092575b600080fd5b607460048036036040811015605557600080fd5b81019080803590602001909291908035906020019092919050505060ae565b005b607c60bb565b6040518082815260200191505060405180910390f35b609860c4565b6040518082815260200191505060405180910390f35b8082016000819055505050565b60008054905090565b6000548156fea265627a7a72315820c90729fe2252886e60984dc0011896e7b049dc81c77da33c19d1011559bcbcc064736f6c634300050b0032",
    "source": "// SPDX-License-Identifier: MIT\npragma solidity ^0.5.11;\n\ncontract sum {\n   int public sumation;\n   constructor() public {\n    sumation = 0;\n   }\n\n  function addTwoNumbers(int number1,int number2) public  {\n      sumation = number1 + number2;\n  }\n  function displaySum() public view returns(int) {\n    return sumation;\n  }\n}\n",
    "sourcePath": "C:\\Users\\Moses\\Downloads\\add2numbers\\add2numbers\\contracts\\sum.sol",
    "compiler": {
        "name": "solc",
        "version": "0.5.11+commit.c082d0b4.Emscripten.clang"
    },
    "schemaVersion": "3.4.16",
    "updatedAt": "2024-05-20T09:17:03.072Z",
    "networkType": "ethereum",
    "devdoc": {
        "methods": {}
    },
    "userdoc": {
        "methods": {}
    }
}